:020000040800F2
:100000000000032045030008890300088903000855
:100010008903000889030008890300080000000024
:10002000000000000000000000000000890300083C
:100030008903000800000000890300088903000804
:100040008903000889030008890300088903000860
:100050008903000889030008890300088903000850
:100060008903000889030008890300088903000840
:100070008903000889030008890300088903000830
:100080008903000889030008890300088903000820
:100090008903000889030008890300088903000810
:1000A0008903000889030008890300088903000800
:1000B00089030008890300088903000889030008F0
:1000C00089030008890300088903000889030008E0
:1000D00089030008890300088903000889030008D0
:1000E00089030008890300088903000889030008C0
:1000F00089030008890300088903000889030008B0
:10010000890300088903000889030008890300089F
:10011000890300088903000889030008890300088F
:10012000890300088903000889030008890300087F
:10013000890300088903000889030008890300086F
:10014000890300088903000889030008890300085F
:10015000890300088903000889030008890300084F
:10016000890300088903000889030008890300083F
:10017000890300088903000889030008890300082F
:10018000890300088903000889030008890300081F
:10019000890300088903000889030008890300080F
:0C01A00089030008890300088903000897
:1001AC00ACC90008000000206000002060000020A6
:1001BC00BC00002080B500AF4020012101F0F8F810
:1001CC0080BD00BF80B582B000AF4FF4C0433B6030
:1001DC0001233B710023BB710023FB7100237B7156
:1001EC003B460348194600F069FB0837BD4680BD05
:1001FC000018024080B584B000AF08233B72002386
:10020C007B720723BB723023FB7200233B730023EA
:10021C007B730023BB7307F10803184606F068FADA
:10022C0020233B7104237B713B1D184606F036FBE3
:10023C001037BD4680BD00BF80B500AF06F0E0FDB5
:10024C0008F010FE012004F041FA06F033FE012004
:10025C0006F0A0FE002006F06BFF4FF4784006F08D
:10026C00E5FE06F031FF0346DB881846184907F017
:10027C00A7F806F029FF0346DB885B009BB2184603
:10028C00144907F09DF806F01FFF0346DB889B001E
:10029C009BB21846104907F093F806F015FF034679
:1002AC00DB881A46920013449BB218460B4907F0A0
:1002BC0087F806F009FF0346DB881A465200134400
:1002CC005B009BB21846064907F07AF880BD00BF68
:1002DC00949F0008A49F0008AC9F0008B09F0008E2
:1002EC00B49F000880B582B000AFFFF763FFFFF743
:1002FC0069FFFFF77FFFFFF79FFF0D484FF4804129
:10030C0000F038FC0A484FF4005100F033FC084868
:10031C004FF4804100F02EFC00237B6002E07B68F0
:10032C0001337B607A68034B9A42F8DDEAE700BF41
:10033C00001802401FA10700002103E00A4B5B5884
:10034C004350043109480A4B42189A42F6D3094AE1
:10035C0002E0002342F8043B074B9A42F9D300F029
:10036C000FF8FFF7BFFF7047ACC900080000002072
:10037C006000002060000020BC000020FEE70000B0
:10038C0080B500AF154B154AD2F8882042F47002A4
:10039C00C3F88820124B124A126842F001021A600C
:1003AC000F4B00229A600E4A0D4B1B6823F084738E
:1003BC0023F4803313600A4B0A4A5A60084B084AEC
:1003CC00126822F480221A60054B0022DA6000F0D9
:1003DC0087F8024B4FF000629A6080BD00ED00E0A0
:1003EC00003802401030002480B487B000AF0023E6
:1003FC003B6100237B610223FB600023BB60022373
:10040C007B60324B9B6803F00C033B613B69042B14
:10041C0007D0082B09D0002B3FD12D4B2D4A1A6049
:10042C003FE02B4B2C4A1A603BE0284B5B6803F4F3
:10043C0080039B0DBB60254B5B6803F03F037B6027
:10044C00BB68002B0DD0244A7B68B2FBF3F21F4B28
:10045C00596847F6C0730B409B0903FB02F37B61A1
:10046C000CE01C4A7B68B2FBF3F2184B596847F658
:10047C00C0730B409B0903FB02F37B61134B5B685E
:10048C0003F440331B0C01335B00FB607A69FB689F
:10049C00B2FBF3F20E4B1A6003E00D4B0D4A1A60DF
:1004AC0000BF0A4B9B6803F0F0031B090B4AD35C9B
:1004BC00DBB23B61064B1A683B69DA40044B1A60AD
:1004CC001C37BD465DF8047B704700BF0038024006
:1004DC00000000200024F40000127A000400002028
:1004EC0080B483B000AF00237B6000233B60354BAE
:1004FC00344A126842F480321A60324B1B6803F49F
:10050C0000333B607B6801337B603B68002B03D17D
:10051C007B68B3F5A04FF0D12A4B1B6803F4003372
:10052C00002B02D001233B6001E000233B603B68C1
:10053C00012B42D1234B234A126C42F080521A6495
:10054C00214B214A126842F440421A601D4B1D4A4D
:10055C0092689A601B4B1B4A926842F400429A6064
:10056C00184B184A926842F4A0529A60154B174ADD
:10057C005A60144B134A126842F080721A6000BF22
:10058C00104B1B6803F00073002BF9D0104B40F29A
:10059C0004621A600B4B0B4A926822F003029A60B9
:1005AC00084B084A926842F002029A6000BF054B61
:1005BC009B6803F00C03082BF9D10C37BD465DF892
:1005CC00047B70470038024000700040194B400714
:1005DC00003C024080B483B000AF7860054A7B6871
:1005EC0043F0BF6343F40033D3600C37BD465DF872
:1005FC00047B704700ED00E080B485B000AF7860FC
:10060C000023FB730023BB730F237B737B68DB78A6
:10061C00002B37D0254BDB68DB4303F4E0631B0A6C
:10062C00FB73FB7BC3F10403BB737A7BFB7B42FA4A
:10063C0003F37B737B685B781A46BB7B02FA03F38C
:10064C00FB737B689A787B7B1340DAB2FB7B13439A
:10065C00FB73FB7B1B01FB73154A7B681B781344F4
:10066C00FA7B83F80023124B7A6812785209D2B2C3
:10067C007968097801F01F01012000FA01F143F8B3
:10068C0022100EE00A4B7A6812785209D2B27968BD
:10069C00097801F01F01012000FA01F1203243F822
:1006AC0022101437BD465DF8047B704700ED00E066
:1006BC0000E100E080B483B000AF78603960074A95
:1006CC003B6823F0604323F07F0379680B4393600E
:1006DC000C37BD465DF8047B704700BF00ED00E0B1
:1006EC0080B483B000AF02460B46FA71BB71BB7984
:1006FC00002B06D0094B094A1169FA790A431A6191
:10070C0006E0064B054A1169FA79D2430A401A6190
:10071C000C37BD465DF8047B704700BF00ED00E070
:10072C0080B483B000AF78607B68042B06D1094B92
:10073C00084A126842F004021A6005E0054B054AAB
:10074C00126822F004021A600C37BD465DF8047B77
:10075C00704700BF10E000E080B582B000AF786059
:10076C007A684B4B9A4208D10120012100F0B6FE69
:10077C000120002100F0B2FE86E07A68454B9A42D7
:10078C0008D10220012100F0A9FE0220002100F076
:10079C00A5FE79E07A68404B9A4208D104200121E9
:1007AC0000F09CFE0420002100F098FE6CE07A68BA
:1007BC003A4B9A4208D10820012100F08FFE082004
:1007CC00002100F08BFE5FE07A68354B9A4208D12D
:1007DC001020012100F082FE1020002100F07EFE8E
:1007EC0052E07A682F4B9A4208D12020012100F068
:1007FC0075FE2020002100F071FE45E07A682A4B3E
:10080C009A4208D14020012100F068FE40200021CE
:10081C0000F064FE38E07A68244B9A4208D18020BC
:10082C00012100F05BFE8020002100F057FE2BE040
:10083C007A681F4B9A420AD14FF48070012100F064
:10084C004DFE4FF48070002100F048FE1CE07A68E9
:10085C00184B9A420AD14FF40070012100F03EFE71
:10086C004FF40070002100F039FE0DE07A68124B55
:10087C009A4209D14FF48060012100F02FFE4FF411
:10088C008060002100F02AFE0837BD4680BD00BF05
:10089C00000002400004024000080240000C02402C
:1008AC00001002400014024000180240001C0240DC
:1008BC0000200240002402400028024080B487B08F
:1008CC0000AF7860396000237B6100233B6100231B
:1008DC00FB6000237B6176E07B69012202FA03F363
:1008EC003B613B681A683B691340FB60FA683B69E3
:1008FC009A4265D17B681A687B695B00032101FA17
:10090C0003F3DB431A407B681A607B681A683B6808
:10091C001B7919467B695B0001FA03F31A437B6868
:10092C001A603B681B79012B03D03B681B79022BA7
:10093C002ED17B689A687B695B00032101FA03F373
:10094C00DB431A407B689A607B689A683B685B79EA
:10095C0019467B695B0001FA03F31A437B689A60C2
:10096C007B685A687B699BB2012101FA03F3DB4374
:10097C001A407B685A607B685A683B689B791946B9
:10098C007B699BB201FA03F39BB21A437B685A60F2
:10099C007B68DA687B699BB25B00032101FA03F385
:1009AC00DB431A407B68DA607B68DA683B68DB798A
:1009BC0019467B695B0001FA03F31A437B68DA6022
:1009CC007B6901337B617B690F2B85D91C37BD4655
:1009DC005DF8047B704700BF80B483B000AF7860D3
:1009EC007B684FF6FF721A607B6800221A717B6875
:1009FC0000225A717B6800229A717B680022DA719E
:100A0C000C37BD465DF8047B704700BF80B485B0E1
:100A1C0000AF78600B467B804FF48033FB607A88A4
:100A2C00FB681343FB60FA687B68DA617A887B6841
:100A3C00DA61FA687B68DA617B68DB69FB607B688A
:100A4C00DB69FB601437BD465DF8047B704700BF63
:100A5C0080B485B000AF78600B467B800023FB73BD
:100A6C007B681A697B881340002B02D00123FB732F
:100A7C0001E00023FB73FB7B18461437BD465DF881
:100A8C00047B704780B483B000AF78607B681B69CF
:100A9C009BB218460C37BD465DF8047B704700BF0F
:100AAC0080B485B000AF78600B467B800023FB736D
:100ABC007B685A697B881340002B02D00123FB739F
:100ACC0001E00023FB73FB7B18461437BD465DF831
:100ADC00047B704780B483B000AF78607B685B693F
:100AEC009BB218460C37BD465DF8047B704700BFBF
:100AFC0080B483B000AF78600B467B807B687A88CB
:100B0C001A830C37BD465DF8047B704780B483B004
:100B1C0000AF78600B467B807B687A885A830C37F1
:100B2C00BD465DF8047B704780B483B000AF78603D
:100B3C0013460A467A807B707B78002B03D07B6847
:100B4C007A881A8302E07B687A885A830C37BD4610
:100B5C005DF8047B704700BF80B483B000AF786051
:100B6C000B467B807A887B685A610C37BD465DF8F2
:100B7C00047B704780B483B000AF78600B467B80F9
:100B8C007B685A697B885A407B685A610C37BD4632
:100B9C005DF8047B704700BF80B485B000AF78600F
:100BAC0013460A467A807B700023FB600023BB60EF
:100BBC007A787B8803F007039B0002FA03F3FB604F
:100BCC007B88DB089BB21A467B88DB089BB21946F4
:100BDC007B68083153F821107B8803F007039B00D6
:100BEC000F2000FA03F3DB4319407B68083243F80B
:100BFC0022107B88DB089BB21A467B68083253F8BC
:100C0C002220FB681343BB607B88DB089BB21A462F
:100C1C007B680832B96843F822101437BD465DF87A
:100C2C00047B704780B400AF164B164A126842F032
:100C3C0001021A60134B00229A60124A114B1B6876
:100C4C0023F0A85323F4102313600E4B0E4A5A6062
:100C5C000C4B0E4AC3F884200A4B0D4AC3F888206B
:100C6C00084B084A126822F480221A60054B0022B5
:100C7C00DA60044B0022C3F88C20BD465DF8047B7F
:100C8C00704700BF003802401030002400300020B4
:100C9C000030002480B483B000AF0346FB71054BD9
:100CAC0000221A70034BFA791A700C37BD465DF8A6
:100CBC00047B70470238024080B582B000AF00233D
:100CCC003B600023FB710023BB71312000F056FD0B
:100CDC000346BB713B6801333B603B68B3F5A04FE7
:100CEC0002D0BB79002BF0D0312000F047FD034639
:100CFC00002B02D00123FB7101E00023FB71FB7977
:100D0C0018460837BD4680BD80B485B000AF034699
:100D1C00FB710023FB600A4B1B68FB60FB6823F034
:100D2C00F803FB60FB79DB00FA681343FB60044BB0
:100D3C00FA681A601437BD465DF8047B704700BF33
:100D4C000038024080B483B000AF0346FB71044B03
:100D5C00FA791A600C37BD465DF8047B704700BF0A
:100D6C000000474280B483B000AF0346FB710C4BCC
:100D7C0000221A700A4B00221A70FB79012B02D048
:100D8C00042B04D007E0064B01221A7003E0044B3D
:100D9C0005221A7000BF0C37BD465DF8047B704706
:100DAC007038024080B483B000AF0346FB71044B33
:100DBC00FA791A600C37BD465DF8047B704700BFAA
:100DCC00800E474280B485B000AFF860B9607A609D
:100DDC003B600A4B7A689101BA6811433A68520831
:100DEC00013A12041143FA681143BA6912060A4314
:100DFC005A601437BD465DF8047B704700380240DA
:100E0C0080B483B000AF0346FB71044BFA791A60CF
:100E1C000C37BD465DF8047B704700BF600047424D
:100E2C0080B485B000AFF860B9607A60074BFA689F
:100E3C009101BA68120611437A6812070A43C3F883
:100E4C0084201437BD465DF8047B7047003802409F
:100E5C0080B483B000AF0346FB71044BFA791A607F
:100E6C000C37BD465DF8047B704700BF68004742F5
:100E7C0080B485B000AFF860B9607A60074BFA684F
:100E8C009101BA68120611437A6812070A43C3F833
:100E9C0088201437BD465DF8047B7047003802404B
:100EAC0080B483B000AF0346FB71044BFA791A602F
:100EBC000C37BD465DF8047B704700BF700047429D
:100ECC0080B483B000AF0346FB71044BFA791A600F
:100EDC000C37BD465DF8047B704700BF4C004742A1
:100EEC0080B485B000AF786039600023FB600A4B9A
:100EFC009B68FB60FB6823F0EC63FB607A683B68E3
:100F0C001343FA681343FB60034BFA689A60143777
:100F1C00BD465DF8047B70470038024080B485B054
:100F2C0000AF786039600023FB600A4B9B68FB6064
:100F3C00FB6823F07843FB607A683B681343FA68DC
:100F4C001343FB60034BFA689A601437BD465DF897
:100F5C00047B70470038024080B485B000AF7860E5
:100F6C000023FB60094B9B68FB60FB6823F00303C9
:100F7C00FB60FA687B681343FB60044BFA689A6069
:100F8C001437BD465DF8047B704700BF0038024043
:100F9C0080B400AF054B9B68DBB203F00C03DBB2F3
:100FAC001846BD465DF8047B704700BF0038024010
:100FBC0080B485B000AF78600023FB60094B9B6860
:100FCC00FB60FB6823F0F003FB60FA687B6813435B
:100FDC00FB60044BFA689A601437BD465DF8047BDD
:100FEC00704700BF0038024080B485B000AF786015
:100FFC000023FB60094B9B68FB60FB6823F4E05308
:10100C00FB60FA687B681343FB60044BFA689A60D8
:10101C001437BD465DF8047B704700BF00380240B2
:10102C0080B485B000AF78600023FB60094B9B68EF
:10103C00FB60FB6823F46043FB607B68DB00FA68B1
:10104C001343FB60034BFA689A601437BD465DF896
:10105C00047B70470038024080B489B000AF7860E0
:10106C000023BB6100237B610023FB6102233B61F6
:10107C000023FB600223BB60484B9B6803F00C030E
:10108C00BB61BB69042B07D0082B09D0002B3FD1C7
:10109C007B68434A1A603FE07B68424A1A603BE037
:1010AC003E4B5B6803F480039B0DFB603B4B5B6822
:1010BC0003F03F03BB60FB68002B0DD0394ABB68C3
:1010CC00B2FBF3F2354B596847F6C0730B409B09E2
:1010DC0003FB02F3FB610CE0314ABB68B2FBF3F299
:1010EC002E4B596847F6C0730B409B0903FB02F368
:1010FC00FB612A4B5B6803F440331B0C01335B0030
:10110C003B61FA693B69B2FBF3F27B681A6003E05E
:10111C007B68234A1A6000BF204B9B6803F0F003E6
:10112C00BB61BB691B09BB611F4ABB6913441B78BC
:10113C00DBB27B617B681A687B69DA407B685A603A
:10114C00164B9B6803F4E053BB61BB699B0ABB6104
:10115C00154ABB6913441B78DBB27B617B685A6808
:10116C007B69DA407B689A600C4B9B6803F46043A4
:10117C00BB61BB695B0BBB610B4ABB6913441B783E
:10118C00DBB27B617B685A687B69DA407B68DA602A
:10119C002437BD465DF8047B704700BF0038024021
:1011AC000024F40000127A001400002080B485B0F2
:1011BC0000AF78600023FB607B6803F44073B3F5E9
:1011CC00407F11D10F4B9B68FB60FB6823F4F81335
:1011DC00FB607B6823F0704323F44073FA6813437D
:1011EC00FB60084BFA689A60064B064A116F7A68E6
:1011FC00C2F30B020A431A671437BD465DF8047B31
:10120C00704700BF0038024080B483B000AF034683
:10121C00FB71044BFA791A600C37BD465DF8047B00
:10122C00704700BF3C0E474280B483B000AF03460A
:10123C00FB71044BFA791A600C37BD465DF8047BE0
:10124C00704700BF400E474280B483B000AF786057
:10125C00034B7A681A600C37BD465DF8047B704707
:10126C005C01474280B485B000AF78600023FB601E
:10127C000A4BD3F88C30FB60FB6823F01F03FB6038
:10128C007B68013BFA681343FB60044BFA68C3F8B4
:10129C008C201437BD465DF8047B70470038024043
:1012AC0080B485B000AF78600023FB600B4BD3F8A3
:1012BC008C30FB60FB6823F4F853FB607B68013BCC
:1012CC001B02FA681343FB60044BFA68C3F88C20CA
:1012DC001437BD465DF8047B704700BF00380240F0
:1012EC0080B485B000AF78600023FB600A4BD3F864
:1012FC008C30FB60FB6823F44013FB60FA687B685E
:10130C001343FB60044BFA68C3F88C201437BD46BA
:10131C005DF8047B704700BF0038024080B485B094
:10132C0000AF78600023FB600A4BD3F88C30FB6075
:10133C00FB6823F44003FB60FA687B681343FB6093
:10134C00044BFA68C3F88C201437BD465DF8047B57
:10135C00704700BF0038024080B485B000AF7860A1
:10136C000023FB600A4BD3F88C30FB60FB6823F442
:10137C004033FB60FA687B681343FB60044BFA68EC
:10138C00C3F88C201437BD465DF8047B704700BF52
:10139C000038024080B483B000AF7860034B7A68A9
:1013AC001A600C37BD465DF8047B7047E01147426C
:1013BC0080B483B000AF78600B46FB70FB78002BD9
:1013CC0006D0094B084A116B7A680A431A6306E087
:1013DC00054B054A116B7A68D2430A401A630C37E5
:1013EC00BD465DF8047B70470038024080B483B082
:1013FC0000AF78600B46FB70FB78002B06D0094BD6
:10140C00084A516B7A680A435A6306E0054B054A51
:10141C00516B7A68D2430A405A630C37BD465DF86B
:10142C00047B70470038024080B483B000AF786012
:10143C000B46FB70FB78002B06D0094B084A916BCE
:10144C007A680A439A6306E0054B054A916B7A6801
:10145C00D2430A409A630C37BD465DF8047B704753
:10146C000038024080B483B000AF78600B46FB704C
:10147C00FB78002B06D0094B084A116C7A680A439A
:10148C001A6406E0054B054A116C7A68D2430A408F
:10149C001A640C37BD465DF8047B70470038024077
:1014AC0080B483B000AF78600B46FB70FB78002BE8
:1014BC0006D0094B084A516C7A680A435A6406E014
:1014CC00054B054A516C7A68D2430A405A640C3772
:1014DC00BD465DF8047B70470038024080B483B091
:1014EC0000AF78600B46FB70FB78002B06D0094BE5
:1014FC00084A11697A680A431A6106E0054B054AE5
:10150C0011697A68D2430A401A610C37BD465DF8FE
:10151C00047B70470038024080B483B000AF786021
:10152C000B46FB70FB78002B06D0094B084A51691F
:10153C007A680A435A6106E0054B054A51697A6894
:10154C00D2430A405A610C37BD465DF8047B7047A4
:10155C000038024080B483B000AF78600B46FB705B
:10156C00FB78002B06D0094B084A91697A680A432C
:10157C009A6106E0054B054A91697A68D2430A40A4
:10158C009A610C37BD465DF8047B70470038024009
:10159C0080B483B000AF78600B46FB70FB78002BF7
:1015AC0006D0094B084A116A7A680A431A6206E0A7
:1015BC00054B054A116A7A68D2430A401A620C3705
:1015CC00BD465DF8047B70470038024080B483B0A0
:1015DC0000AF78600B46FB70FB78002B06D0094BF4
:1015EC00084A516A7A680A435A6206E0054B054A72
:1015FC00516A7A68D2430A405A620C37BD465DF88C
:10160C00047B70470038024080B483B000AF786030
:10161C000B46FB70FB78002B06D0094B084A116D6A
:10162C007A680A431A6506E0054B054A116D7A681B
:10163C00D2430A401A650C37BD465DF8047B7047EF
:10164C000038024080B483B000AF78600B46FB706A
:10165C00FB78002B06D0094B084A516D7A680A4377
:10166C005A6506E0054B054A516D7A68D2430A402B
:10167C005A650C37BD465DF8047B70470038024054
:10168C0080B483B000AF78600B46FB70FB78002B06
:10169C0006D0094B084A916D7A680A439A6506E0B0
:1016AC00054B054A916D7A68D2430A409A650C370E
:1016BC00BD465DF8047B70470038024080B483B0AF
:1016CC0000AF78600B46FB70FB78002B06D0094B03
:1016DC00084A116E7A680A431A6606E0054B054AF9
:1016EC00116E7A68D2430A401A660C37BD465DF813
:1016FC00047B70470038024080B483B000AF786040
:10170C000B46FB70FB78002B06D0094B084A516E38
:10171C007A680A435A6606E0054B054A516E7A68A8
:10172C00D2430A405A660C37BD465DF8047B7047BD
:10173C000038024080B483B000AF02460B46FA7109
:10174C00BB71BB79002B08D00B4B0B4A1278D1B272
:10175C00FA790A43D2B21A7009E0074B064A12789A
:10176C00D1B2FA79D243D2B20A40D2B21A700C3743
:10177C00BD465DF8047B70470D38024080B487B0DD
:10178C0000AF0346FB710023FB6000237B61002349
:10179C00FB74FB795B09DBB2FB60FB68012B03D1AB
:1017AC00124B1B687B6109E0FB68022B03D10F4BCA
:1017BC001B6F7B6102E00D4B5B6F7B61FB7903F070
:1017CC001F03FB60FB687A6922FA03F303F0010341
:1017DC00002B02D00123FB7401E00023FB74FB7C83
:1017EC0018461C37BD465DF8047B70470038024034
:1017FC0080B400AF044B044A526F42F080725A67B7
:10180C00BD465DF8047B70470038024080B485B05B
:10181C0000AF0346FB710023FB73094BDA68FB79BD
:10182C001340002B02D00123FB7301E00023FB7358
:10183C00FB7B18461437BD465DF8047B704700BF30
:10184C000038024080B483B000AF0346FB71044BF8
:10185C00FA791A700C37BD465DF8047B704700BFEF
:10186C000E38024080B582B000AF78607A683A4B8F
:10187C009A4208D110200121FFF7A8FE1020002168
:10188C00FFF7A4FE65E07A68344B9A420AD14FF414
:10189C0000300121FFF77CFE4FF400300021FFF7F0
:1018AC0077FE56E07A682E4B9A420AD14FF480208C
:1018BC000121FFF76DFE4FF480200021FFF768FE39
:1018CC0047E07A68274B9A420AD14FF40020012155
:1018DC00FFF75EFE4FF400200021FFF759FE38E0C1
:1018EC007A68214B9A420AD14FF480100121FFF7FC
:1018FC004FFE4FF480100021FFF74AFE29E07A6872
:10190C001A4B9A4208D120200121FFF75FFE2020BC
:10191C000021FFF75BFE1CE07A68154B9A420AD156
:10192C004FF080400121FFF733FE4FF08040002143
:10193C00FFF72EFE0DE07A680E4B9A4209D14FF05C
:10194C0000400121FFF724FE4FF000400021FFF77B
:10195C001FFE0837BD4680BD00100140004400400A
:10196C0000480040004C0040005000400014014072
:10197C0000780040007C004080B58AB000AF7860F1
:10198C00396000237B6200233B620023FB61002350
:10199C00BB617B681B8A9BB27B627B6A23F44053DE
:1019AC007B623B68DB887A6A13437B627B6A9AB200
:1019BC007B681A827B689B899BB27B627B6A23F46F
:1019CC00B05323F00C037B623B689A883B681B89FD
:1019DC0013439AB23B685B8913439BB27A6A1343F5
:1019EC007B627B6A9AB27B689A817B689B8A9BB28A
:1019FC007B627B6A23F440737B623B689B897A6AC7
:101A0C0013437B627B6A9AB27B689A8207F1080364
:101A1C001846FFF721FB7A68314B9A4203D07A685B
:101A2C00304B9A4202D17B693B6201E03B693B62DD
:101A3C007B689B899BB29BB21BB2002B0CDA3A6A77
:101A4C0013469B0013449A001A443B681B685B00C6
:101A5C00B2FBF3F3FB610BE03A6A13469B001344B1
:101A6C009A001A443B681B689B00B2FBF3F3FB61C2
:101A7C00FA691D4BA3FB02135B091B017B627B6A9A
:101A8C001B09642202FB03F3FA69D31ABB617B685E
:101A9C009B899BB29BB21BB2002B0DDABB69DB009E
:101AAC0003F13202104BA3FB02135B0903F0070393
:101ABC007A6A13437B620CE0BB691B0103F13202AF
:101ACC00094BA3FB02135B0903F00F037A6A134360
:101ADC007B627B6A9AB27B681A812837BD4680BDCF
:101AEC0000100140001401401F85EB5180B483B0FD
:101AFC0000AF78607B684FF416521A607B68002246
:101B0C009A807B680022DA807B6800221A817B68CD
:101B1C000C225A817B6800229A810C37BD465DF8F5
:101B2C00047B704780B485B000AF786039600023C7
:101B3C00FB607B681B8A9BB2FB60FB6823F47063C1
:101B4C00FB603B681A883B685B8813439AB23B681E
:101B5C009B8813439AB23B68DB8813439BB2FA68A9
:101B6C001343FB60FB689AB27B681A821437BD463C
:101B7C005DF8047B704700BF80B483B000AF786021
:101B8C007B6800221A807B6800225A807B680022C6
:101B9C009A807B680022DA800C37BD465DF8047BA6
:101BAC00704700BF80B483B000AF78600B46FB7009
:101BBC00FB78002B08D07B689B899BB243F40053C5
:101BCC009AB27B689A8107E07B689B899BB223F46D
:101BDC0000539AB27B689A810C37BD465DF8047B42
:101BEC00704700BF80B483B000AF78600B46FB70C9
:101BFC007B681B8B9BB223F0FF039AB27B681A8322
:101C0C007B681B8B9AB2FB789BB213439AB27B68AE
:101C1C001A830C37BD465DF8047B704780B483B0E3
:101C2C0000AF78600B46FB70FB78002B0AD07B680A
:101C3C009B899BB26FEA43436FEA53439AB27B682A
:101C4C009A8107E07B689B899BB2C3F30E039AB21F
:101C5C007B689A810C37BD465DF8047B704700BFEA
:101C6C0080B483B000AF78600B46FB70FB78002B20
:101C7C0008D07B689B8A9BB243F400639AB27B6862
:101C8C009A8207E07B689B8A9BB223F400639AB22A
:101C9C007B689A820C37BD465DF8047B704700BFA9
:101CAC0080B483B000AF78600B467B807B88C3F335
:101CBC0008039AB27B689A800C37BD465DF8047BAA
:101CCC00704700BF80B483B000AF78607B689B889E
:101CDC009BB2C3F308039BB218460C37BD465DF8A4
:101CEC00047B704780B483B000AF78600B46FB7008
:101CFC007B681B8A9BB223F00F039AB27B681A8213
:101D0C007B681B8A9AB2FB789BB213439AB27B68AE
:101D1C001A820C37BD465DF8047B704780B483B0E3
:101D2C0000AF78600B46FB70FB78002B08D07B680B
:101D3C009B899BB243F002039AB27B689A8107E0BD
:101D4C007B689B899BB223F002039AB27B689A81D1
:101D5C000C37BD465DF8047B704700BF80B483B080
:101D6C0000AF78600B467B807B689B899BB223F429
:101D7C0000639AB27B689A817B689B899AB27B8854
:101D8C0013439AB27B689A810C37BD465DF8047B8D
:101D9C00704700BF80B483B000AF78600B467B8087
:101DAC007B681B8A9BB223F020039AB27B681A8251
:101DBC007B681B8A9AB27B8813439AB27B681A821F
:101DCC000C37BD465DF8047B704700BF80B483B010
:101DDC0000AF78600B46FB70FB78002B08D07B685B
:101DEC001B8A9BB243F480439AB27B681A8207E049
:101DFC007B681B8A9BB223F480439AB27B681A825D
:101E0C000C37BD465DF8047B704700BF80B483B0CF
:101E1C0000AF78607B689B899BB243F001039AB258
:101E2C007B689A810C37BD465DF8047B704700BF18
:101E3C0080B483B000AF78600B46FB70FB78002B4E
:101E4C0008D07B689B8A9BB243F008039AB27B68EC
:101E5C009A8207E07B689B8A9BB223F008039AB2B4
:101E6C007B689A820C37BD465DF8047B704700BFD7
:101E7C0080B483B000AF78600B46FB707B681B8B23
:101E8C009BB2DBB29AB27B681A837B681B8B9AB2CB
:101E9C00FB789BB21B029BB213439AB27B681A83EA
:101EAC000C37BD465DF8047B704700BF80B483B02F
:101EBC0000AF78600B46FB70FB78002B08D07B687A
:101ECC009B8A9BB243F020039AB27B689A8207E00C
:101EDC007B689B8A9BB223F020039AB27B689A8220
:101EEC000C37BD465DF8047B704700BF80B483B0EF
:101EFC0000AF78600B46FB70FB78002B08D07B683A
:101F0C009B8A9BB243F010039AB27B689A8207E0DB
:101F1C007B689B8A9BB223F010039AB27B689A82EF
:101F2C000C37BD465DF8047B704700BF80B483B0AE
:101F3C0000AF78600B467B807B689B8A9BB223F05A
:101F4C0004039AB27B689A827B689B8A9AB27B88DC
:101F5C0013439AB27B689A820C37BD465DF8047BBA
:101F6C00704700BF80B483B000AF78600B46FB7045
:101F7C00FB78002B08D07B689B8A9BB243F0020352
:101F8C009AB27B689A8207E07B689B8A9BB223F0AB
:101F9C0002039AB27B689A820C37BD465DF8047BCB
:101FAC00704700BF80B483B000AF786013460A4618
:101FBC007A807B707B78002B08D07B689B8A9AB2E6
:101FCC007B8813439AB27B689A8209E07B689B8A70
:101FDC009AB27B88DB439BB213409AB27B689A829D
:101FEC000C37BD465DF8047B704700BF80B487B0EA
:101FFC0000AF786013460A467A807B7000233B6101
:10200C000023FB600023BB6000237B617B687B614A
:10201C007B88DBB25B09DBB23B617B8803F01F037F
:10202C00FB60FB68012202FA03F3BB603B69012BE6
:10203C0003D17B690C337B6109E03B69022B03D133
:10204C007B6910337B6102E07B6914337B617B78A5
:10205C00002B06D07B697A691168BA680A431A604A
:10206C0006E07B697A691168BA68D2430A401A6043
:10207C001C37BD465DF8047B704700BF80B485B04B
:10208C0000AF78600B467B800023FB737B681B885A
:10209C009AB27B8813409BB2002B02D00123FB73B6
:1020AC0001E00023FB73FB7B18461437BD465DF83B
:1020BC00047B704780B483B000AF78600B467B80A4
:1020CC007B88DB439AB27B681A800C37BD465DF87F
:1020DC00047B704780B487B000AF78600B467B8080
:1020EC000023FB6000237B610023BB600023FB7497
:1020FC007B88DBB25B09DBB2BB607B8803F01F0320
:10210C007B617B69012202FA03F37B61BB68012BC3
:10211C0006D17B689B899BB27A6913407B610FE087
:10212C00BB68022B06D17B681B8A9BB27A69134071
:10213C007B6105E07B689B8A9BB27A6913407B616B
:10214C007B881B0A9BB2FB60FB68012202FA03F33B
:10215C00FB607B681B889BB2FA681340FB607B6951
:10216C00002B05D0FB68002B02D00123FB7401E08F
:10217C000023FB74FB7C18461C37BD465DF8047BC2
:10218C00704700BF80B485B000AF78600B467B8091
:10219C000023FB810023BB817B881B0AFB81FB890D
:1021AC00012202FA03F3BB81BB89DB439AB27B6841
:1021BC001A801437BD465DF8047B704780B500AFBC
:1021CC004FF480400121FFF701FA4FF480400021C9
:1021DC00FFF7FCF980BD00BF80B483B000AF0346AD
:1021EC00FB71044BFA791A600C37BD465DF8047B21
:1021FC00704700BF0038014080B483B000AF034685
:10220C00FB71044BFA791A600C37BD465DF8047B00
:10221C00704700BF2000274290B484B000AF024644
:10222C000B46FA71BB710023FB60BB7903F003030F
:10223C009B000F2202FA03F3FB60154BBA7992084C
:10224C00D2B21349B8798008C0B2023051F82000DC
:10225C00F968C9430140023243F822100C4BBA7999
:10226C009208D2B20A49B8798008C0B2023051F84B
:10227C002000FC79B97901F00301890004FA01F11D
:10228C000143023243F822101037BD4690BC704710
:10229C000038014080B483B000AF7860034B7A689B
:1022AC001A600C37BD465DF8047B7047DC00274292
:1022BC0080B483B000AF0346FB71044BFA791A600B
:1022CC000C37BD465DF8047B704700BF0004274205
:1022DC0080B483B000AF0023FB71094B1B6A03F47D
:1022EC008073002B02D00123FB7101E00023FB71F2
:1022FC00FB7918460C37BD465DF8047B704700BF70
:10230C000038014080B582B000AF78607A68174B16
:10231C009A420AD14FF400100121FFF739F94FF41A
:10232C0000100021FFF734F91CE07A68104B9A4238
:10233C000AD14FF480000121FFF72AF94FF48000F5
:10234C000021FFF725F90DE07A680A4B9A4209D172
:10235C004FF400000121FFF71BF94FF4000000219E
:10236C00FFF716F90837BD4680BD00BF005400408A
:10237C0000580040005C004080B58AB000AF786027
:10238C0039600023FB8400237B840423BB84574BDC
:10239C00FB617B689B88FB84FB8C23F03F03FB84F5
:1023AC0007F10C031846FEF757FE7B69FB61FA69CF
:1023BC004F4BA3FB02139B0C7B84FA8C7B8C13433B
:1023CC00FB847B68FA8C9A807B681B889BB223F019
:1023DC0001039AB27B681A800023FB843B681A685D
:1023EC00444B9A4215D83B681B685B00FA69B2FBF8
:1023FC00F3F3BB84BB8C032B01D80423BB84FA8C72
:10240C00BB8C1343FB847B8C01339AB27B681A849C
:10241C0040E03B68DA884BF6FF739A4209D13B687F
:10242C001A6813465B001344FA69B2FBF3F3BB84DE
:10243C000EE03B681A6813469B0013449A00134441
:10244C00FA69B2FBF3F3BB84BB8C43F48043BB84CB
:10245C00BB8CC3F30B03002B03D1BB8C43F00103E8
:10246C00BB84BA8CFB8C13439BB26FEA43436FEA79
:10247C005343FB847B8C4FF4967202FB03F31E4A8E
:10248C0082FB03129211DB17D31A9BB201339AB25F
:10249C007B681A847B68FA8C9A837B681B889BB256
:1024AC0043F001039AB27B681A807B681B88FB841B
:1024BC00FB8C23F4816323F00203FB843B689A8832
:1024CC003B685B8913439AB2FB8C1343FB847B6898
:1024DC00FA8C1A803B689A893B681B8913439AB221
:1024EC007B681A812837BD4680BD00BF00127A0078
:1024FC0083DE1B43A0860100D34D621080B483B0F1
:10250C0000AF78607B6841F288321A607B680022E9
:10251C009A807B684BF6FF72DA807B6800221A8106
:10252C007B6800225A817B684FF480429A810C3779
:10253C00BD465DF8047B704780B483B000AF786013
:10254C000B46FB70FB78002B08D07B681B889BB27A
:10255C0043F001039AB27B681A8007E07B681B8802
:10256C009BB223F001039AB27B681A800C37BD46EC
:10257C005DF8047B704700BF80B483B000AF786017
:10258C000B46FB70FB78002B08D07B689B8C9BB2B6
:10259C0023F010039AB27B689A8407E07B689B8CCB
:1025AC009BB243F010039AB27B689A840C37BD46F9
:1025BC005DF8047B704700BF80B485B000AF7860D5
:1025CC000B467B800023FB817B689B8CFB81FB890A
:1025DC0023F00F03FB817B8803F00F039AB2FB8976
:1025EC0013439BB2FB817B68FA899A841437BD46EE
:1025FC005DF8047B704700BF80B483B000AF786097
:10260C000B46FB70FB78002B08D07B681B889BB2B9
:10261C0043F480739AB27B681A8007E07B681B884E
:10262C009BB223F480739AB27B681A800C37BD4638
:10263C005DF8047B704700BF80B483B000AF786056
:10264C000B46FB70FB78002B08D07B681B889BB279
:10265C0043F400739AB27B681A8007E07B681B888E
:10266C009BB223F400739AB27B681A800C37BD4678
:10267C005DF8047B704700BF80B483B000AF786016
:10268C0013460A46FA70BB70BB78002B04D0FB785B
:10269C0043F00103FB7003E0FB7823F00103FB70B4
:1026AC00FB789AB27B681A820C37BD465DF8047BC6
:1026BC00704700BF80B483B000AF78600B46FB70EE
:1026CC00FB78002B08D07B681B889BB243F480639B
:1026DC009AB27B681A8007E07B681B889BB223F454
:1026EC0080639AB27B681A800C37BD465DF8047B18
:1026FC00704700BF80B485B000AF78600B46FB70AC
:10270C000023FB817B689B89FB81FB8923F0FE0303
:10271C00FB81FB789BB203F0FE039AB2FB89134357
:10272C009BB2FB817B68FA899A811437BD465DF8B0
:10273C00047B704780B483B000AF78600B46FB70AD
:10274C00FB78002B08D07B689B899BB243F001037C
:10275C009AB27B689A8107E07B689B899BB223F0D5
:10276C0001039AB27B689A810C37BD465DF8047BF5
:10277C00704700BF80B483B000AF78600B46FB702D
:10278C00FB78002B08D07B681B889BB243F040037E
:10279C009AB27B681A8007E07B681B889BB223F097
:1027AC0040039AB27B681A800C37BD465DF8047BF7
:1027BC00704700BF80B483B000AF78600B46FB70ED
:1027CC00FB78002B0AD07B681B889BB26FEA4343D3
:1027DC006FEA53439AB27B681A8007E07B681B88C8
:1027EC009BB2C3F30E039AB27B681A800C37BD46BA
:1027FC005DF8047B704700BF80B483B000AF786095
:10280C000B46FB70FB78002B08D17B681B889BB2B6
:10281C0043F080039AB27B681A8007E07B681B88C0
:10282C009BB223F080039AB27B681A800C37BD46AA
:10283C005DF8047B704700BF80B483B000AF786054
:10284C000B467B807B88B3F5804F08D07B689B8BD5
:10285C009BB223F480439AB27B689A8307E07B682F
:10286C009B8B9BB243F480439AB27B689A830C3760
:10287C00BD465DF8047B704780B483B000AF7860D0
:10288C000B467B807B88B3F5006F08D17B681B8877
:10289C009BB243F400639AB27B681A8007E07B68B2
:1028AC001B889BB223F400639AB27B681A800C37A6
:1028BC00BD465DF8047B704780B483B000AF786090
:1028CC000B467B807B88B3F5005F08D17B681B8847
:1028DC009BB243F400539AB27B681A8007E07B6882
:1028EC001B889BB223F400539AB27B681A800C3776
:1028FC00BD465DF8047B704780B483B000AF786050
:10290C000B46FB70FB78002B08D07B681B889BB2B6
:10291C0043F010039AB27B681A8007E07B681B882F
:10292C009BB223F010039AB27B681A800C37BD4619
:10293C005DF8047B704700BF80B483B000AF786053
:10294C000B46FB70FB789AB27B681A820C37BD463B
:10295C005DF8047B704700BF80B483B000AF786033
:10296C007B681B8A9BB2DBB218460C37BD465DF800
:10297C00047B704780B483B000AF78600B46FB706B
:10298C00FB78002B08D07B681B889BB243F48053E8
:10299C009AB27B681A8007E07B681B889BB223F491
:1029AC0080539AB27B681A800C37BD465DF8047B65
:1029BC00704700BF80B483B000AF78600B467B805B
:1029CC007B88B3F5006F08D17B681B889BB243F4FE
:1029DC0000639AB27B681A8007E07B681B889BB205
:1029EC0023F400639AB27B681A800C37BD465DF8FD
:1029FC00047B704780B483B000AF78600B46FB70EB
:102A0C00FB78002B08D07B681B889BB243F020031B
:102A1C009AB27B681A8007E07B681B889BB223F014
:102A2C0020039AB27B681A800C37BD465DF8047B94
:102A3C00704700BF80B483B000AF78607B681B8B9D
:102A4C009BB21B0A9BB2DBB218460C37BD465DF835
:102A5C00047B704780B483B000AF78600B46FB708A
:102A6C00FB78002B08D07B689B889BB243F40063F7
:102A7C009AB27B689A8007E07B689B889BB223F4B0
:102A8C0000639AB27B689A800C37BD465DF8047B74
:102A9C00704700BF80B483B000AF78600B46FB700A
:102AAC00FB78002B08D07B689B889BB243F4805347
:102ABC009AB27B689A8007E07B689B889BB223F470
:102ACC0080539AB27B689A800C37BD465DF8047BC4
:102ADC00704700BF80B485B000AF78600B46FB70C8
:102AEC000023FB607B68FB60FA78FB681344FB6097
:102AFC00FB681B889BB218461437BD465DF8047BF7
:102B0C00704700BF80B483B000AF786013460A46AC
:102B1C007A807B707B78002B08D07B689B889AB27C
:102B2C007B8813439AB27B689A8009E07B689B8808
:102B3C009AB27B88DB439BB213409AB27B689A8033
:102B4C000C37BD465DF8047B704700BF80B487B07E
:102B5C0000AF7860396000233B610023FB600023E9
:102B6C00BB600023FB757B689B8A9BB2FB607B6818
:102B7C001B8B9BB2BB60BB681B04BB60FA68BB6859
:102B8C00134323F07F433B613A693B681A403B682F
:102B9C009A4202D10123FB7501E00023FB75FB7DFA
:102BAC0018461C37BD465DF8047B704780B487B06F
:102BBC0000AF786000237B6100233B610023FB6046
:102BCC007B689B8A9BB23B617B681B8B9BB2FB60D7
:102BDC00FB681B04FB603A69FB68134323F07F43DB
:102BEC007B617B6918461C37BD465DF8047B7047DA
:102BFC0080B487B000AF786039600023FB75002388
:102C0C003B610023FB607B68FB603B681B0F3B61F7
:102C1C003B6823F07F433B603B69002B03D0FB6890
:102C2C001433FB6005E03B681B0C3B60FB681833FE
:102C3C00FB60FB681A683B681340002B02D0012331
:102C4C00FB7501E00023FB75FB7D18461C37BD4668
:102C5C005DF8047B704700BF80B485B000AF78602E
:102C6C0039600023FB603B6823F07F43FB60FB680B
:102C7C009BB2DB439AB27B689A821437BD465DF8EF
:102C8C00047B704780B485B000AF78603960002356
:102C9C00FB730023BB603B6803F0E0631A0C7B689A
:102CAC009B889BB21340BB603B6823F07F433B6027
:102CBC007B689B8A9BB21A463B681340002B05D05D
:102CCC00BB68002B02D00123FB7301E00023FB73D4
:102CDC00FB7B18461437BD465DF8047B704700BF7C
:102CEC0080B485B000AF786039600023FB603B682E
:102CFC0023F07F43FB60FB689BB2DB439AB27B689B
:102D0C009A821437BD465DF8047B704780B483B05B
:102D1C0000AF78607B681B6823F001027B681A6047
:102D2C007B6800221A607B6800225A607B68002254
:102D3C009A607B680022DA607B6800221A617B68EB
:102D4C0021225A617A68454B9A4203D1444B3D2269
:102D5C009A607EE07A68434B9A4204D1404B4FF420
:102D6C0074629A6075E07A683F4B9A4204D13C4B8E
:102D7C004FF474129A606CE07A683C4B9A4204D11E
:102D8C00374B4FF074629A6063E07A68384B9A4222
:102D9C0003D1334B374ADA605BE07A68364B9A42A0
:102DAC0003D12F4B354ADA6053E07A68344B9A42A0
:102DBC0003D12B4B334ADA604BE07A68324B9A42A0
:102DCC0004D1274B4FF03D52DA6042E07A682F4B2A
:102DDC009A4203D12E4B3D229A603AE07A682D4BF1
:102DEC009A4204D12A4B4FF474629A6031E07A68AB
:102DFC00294B9A4204D1264B4FF474129A6028E066
:102E0C007A68264B9A4204D1214B4FF074629A6037
:102E1C001FE07A68224B9A4203D11D4B154ADA60A7
:102E2C0017E07A681F4B9A4203D1194B134ADA60A8
:102E3C000FE07A681C4B9A4203D1154B114ADA60A9
:102E4C0007E07A68194B9A4203D1114B4FF03D526F
:102E5C00DA600C37BD465DF8047B704710600240A9
:102E6C00006002402860024040600240586002400E
:102E7C00706002403D00002088600240400F00203E
:102E8C00A060024000003D20B86002401064024087
:102E9C0000640240286402404064024058640240CE
:102EAC007064024088640240A0640240B86402402E
:102EBC0080B485B000AF786039600023FB607B681C
:102ECC001B68FB60FA68244B1340FB603B681A6874
:102EDC003B68DB681A433B685B691A433B689B6938
:102EEC001A433B68DB691A433B681B6A1A433B680D
:102EFC005B6A1A433B689B6A1A433B685B6B1A43D9
:102F0C003B689B6B1343FA681343FB607B68FA685E
:102F1C001A607B685B69FB60FB6823F00703FB604E
:102F2C003B68DA6A3B681B6B1343FA681343FB601C
:102F3C007B68FA685A613B681A697B685A603B681F
:102F4C005A687B689A603B689A687B68DA601437C9
:102F5C00BD465DF8047B70473F801CF080B483B0A5
:102F6C0000AF78607B6800221A607B6800225A6090
:102F7C007B6800229A607B680022DA607B68002202
:102F8C001A617B6800225A617B6800229A617B6817
:102F9C000022DA617B6800221A627B6800225A6286
:102FAC007B6800229A627B680022DA627B680022CE
:102FBC001A637B6800225A637B6800229A630C3781
:102FCC00BD465DF8047B704780B483B000AF786079
:102FDC000B46FB70FB78002B06D07B681B6843F01C
:102FEC0001027B681A6005E07B681B6823F0010214
:102FFC007B681A600C37BD465DF8047B704700BFD8
:10300C0080B483B000AF786039603B68002B06D089
:10301C007B681B6843F400427B681A6005E07B68A0
:10302C001B6823F400427B681A600C37BD465DF8C0
:10303C00047B704780B483B000AF786039603B6824
:10304C00002B06D07B681B6843F020027B681A605B
:10305C0005E07B681B6823F020027B681A600C3744
:10306C00BD465DF8047B704780B483B000AF7860D8
:10307C000B467B807A887B685A600C37BD465DF8BE
:10308C00047B704780B483B000AF78607B685B686A
:10309C009BB218460C37BD465DF8047B704700BFE9
:1030AC0080B485B000AFF860B9607A607B68002BA3
:1030BC0006D0FB681B6843F40022FB681A6005E02D
:1030CC00FB681B6823F40022FB681A60FB68BA6873
:1030DC001A611437BD465DF8047B704780B483B029
:1030EC0000AF78600B46FB70FB78002B06D07B683A
:1030FC001B6843F480227B681A6005E07B681B68C0
:10310C0023F480227B681A600C37BD465DF8047B83
:10311C00704700BF80B485B000AFF860B9607A60CA
:10312C007B68002B03D0FB68BA681A6102E0FB686D
:10313C00BA68DA601437BD465DF8047B704700BF8F
:10314C0080B485B000AF78600023FB607B681B689F
:10315C0003F40023002B02D00123FB6001E00023C9
:10316C00FB60FB6818461437BD465DF8047B70475E
:10317C0080B485B000AF78600023FB737B681B685C
:10318C0003F00103002B02D00123FB7301E00023A9
:10319C00FB73FB7B18461437BD465DF8047B704708
:1031AC0080B485B000AF78600023FB607B685B69FE
:1031BC0003F03803FB60FB6818461437BD465DF816
:1031CC00047B704780B487B000AF7860396000230F
:1031DC00FB750023FB607A68154B9A4202D8154B9D
:1031EC003B6101E0144B3B613B6803F00053002B47
:1031FC0003D03B695B68FB6002E03B691B68FB60CA
:10320C00FB6823F0F02323F08213FB60FA683B6821
:10321C001340002B02D00123FB7501E00023FB754A
:10322C00FB7D18461C37BD465DF8047B704700BF1C
:10323C000F640240006002400064024080B485B01C
:10324C0000AF786039607A68104B9A4202D8104B04
:10325C00FB6001E00F4BFB603B6803F00053002B5D
:10326C0007D03B6823F0F02323F08213FA68D36075
:10327C0006E03B6823F0F02323F08213FA68936096
:10328C001437BD465DF8047B704700BF0F640240E5
:10329C00006002400064024080B485B000AFF8606A
:1032AC00B9601346FB71BB6803F08003002B0FD091
:1032BC00FB79002B06D0FB685B6943F08002FB684E
:1032CC005A6105E0FB685B6923F08002FB685A6178
:1032DC00BB68802B14D0FB79002B08D0FB681A68D4
:1032EC00BB6803F01E031A43FB681A6008E0FB6816
:1032FC001A68BB6803F01E03DB431A40FB681A60B4
:10330C001437BD465DF8047B704700BF80B487B0AE
:10331C0000AF786039600023FB750023FB6000234D
:10332C00BB607A68224B9A4202D8224B3B6101E087
:10333C00214B3B613B6823F0F02323F0C313002B9C
:10334C000AD03B68DB0A03F01E03FB607B681A683B
:10335C00FB681340BB6004E07B685B6903F080038F
:10336C00BB603B6803F00053002B03D03B695B68E8
:10337C00FB6002E03B691B68FB60FB6823F0F023F9
:10338C0023F08213FB60FA683B681340002B05D0D6
:10339C00BB68002B02D00123FB7501E00023FB75F9
:1033AC00FB7D18461C37BD465DF8047B704700BF9B
:1033BC000F640240006002400064024080B485B09B
:1033CC0000AF786039607A68104B9A4202D8104B83
:1033DC00FB6001E00F4BFB603B6803F00053002BDC
:1033EC0007D03B6823F0F02323F08213FA68D360F4
:1033FC0006E03B6823F0F02323F08213FA68936015
:10340C001437BD465DF8047B704700BF0F64024063
:10341C00006002400064024080B582B000AF78606A
:10342C007A682D4B9A420AD14FF480500121FEF755
:10343C00CDF84FF480500021FEF7C8F849E07A68C7
:10344C00264B9A420AD14FF480400121FEF7A0F896
:10345C004FF480400021FEF79BF83AE07A68204B4D
:10346C009A420AD14FF400400121FEF791F84FF433
:10347C0000400021FEF78CF82BE07A68194B9A4239
:10348C000AD14FF400500121FEF7A0F84FF4005080
:10349C000021FEF79BF81CE07A68134B9A420AD184
:1034AC004FF480100121FEF791F84FF480100021A9
:1034BC00FEF78CF80DE07A680C4B9A4209D14FF468
:1034CC0000100121FEF782F84FF400100021FEF7E6
:1034DC007DF80837BD4680BD003001400038004003
:1034EC00003C0040003401400050014000540140B9
:1034FC0080B485B000AF786039600023FB817B68B5
:10350C001B88FB81FB8903F44153FB813B681A88C0
:10351C003B685B8813439AB23B689B8813439AB20F
:10352C003B68DB8813439AB23B681B8913439AB2FE
:10353C003B685B8913439AB23B689B8913439AB2ED
:10354C003B68DB8913439AB2FB891343FB817B688D
:10355C00FA891A807B689B8B9BB223F400639AB226
:10356C007B689A833B681A8A7B681A821437BD463B
:10357C005DF8047B704700BF80B48BB000AF7860FF
:10358C00396000237B830223FB840023BB8401234B
:10359C007B840023FB6100237B6100233B610023C0
:1035AC00FB600023BB607B689B8B9BB223F47B632B
:1035BC0023F00F039AB27B689A837B6802221A84E9
:1035CC007B689B8B7B833B689B68022B04D100231D
:1035DC00BB840223FB8471E03B689B88002B02D1E7
:1035EC0001237B8401E002237B844C4B9B6803F416
:1035FC000003002B05D0494B484A926822F4000284
:10360C009A60464BD3F8842047F6C07313409B094D
:10361C00C3F30803FB60414BD3F8843003F0E04361
:10362C001B0F03F00703BB603C4B5B6803F03F03CD
:10363C003B613B4A3B69B2FBF3F3FA6802FB03F2D2
:10364C00BB68B2FBF3F37B613B68DB88B3F5007FAF
:10365C000FD17B691A0A13469B0013445B001A4670
:10366C003B689B68B2FBF3F39BB205339BB2FB61E7
:10367C0011E07B8C5B017A69B2FBF3F213469B0081
:10368C0013445B001A463B689B68B2FBF3F39BB296
:10369C0005339BB2FB61FA69224BA3FB0213DB08D7
:1036AC00FB61FB699BB203F00103BB84BB8CFA6921
:1036BC00D31A5B08FB84BB8C1B02BB84FB8C012BD9
:1036CC0002D9FB8CFF2B03D90223FB840023BB8480
:1036DC003B68DA88BB8C13439AB2FB8C13439AB2C7
:1036EC007B681A843B681A883B6859883B689888C1
:1036FC003B689B8903439BB20B439BB213439AB227
:10370C007B8B13439BB243F400637B837B687A8B84
:10371C009A832C37BD465DF8047B70470038024015
:10372C0000127A00CDCCCCCC80B483B000AF7860E2
:10373C007B6800221A807B6800225A807B680022FA
:10374C009A807B680022DA807B6800221A817B6871
:10375C0000225A817B6800229A817B680022DA81E0
:10376C007B6807221A820C37BD465DF8047B7047D4
:10377C0080B483B000AF78607B6800221A807B68CD
:10378C0000225A807B6800229A807B680022DA80B3
:10379C007B6802229A607B6800229A810C37BD46B6
:1037AC005DF8047B704700BF80B483B000AF7860D5
:1037BC000B46FB70FB78002B08D07B681B889BB2F8
:1037CC0043F040039AB27B681A8007E07B681B8841
:1037DC009BB223F040039AB27B681A800C37BD462B
:1037EC005DF8047B704700BF80B483B000AF786095
:1037FC000B46FB70FB78002B08D07B689B8B9BB235
:10380C0043F480639AB27B689A8307E07B689B8B56
:10381C009BB223F480639AB27B689A830C37BD46C3
:10382C005DF8047B704700BF80B483B000AF786054
:10383C000B467B807B681B889BB223F400639AB297
:10384C007B681A807B681B889AB27B8813439AB278
:10385C007B681A800C37BD465DF8047B704700BF4F
:10386C0080B483B000AF78600B467B807B88B3F567
:10387C00804F08D17B681B889BB243F480439AB27B
:10388C007B681A8007E07B681B889BB223F480431B
:10389C009AB27B681A800C37BD465DF8047B704782
:1038AC0080B483B000AF78600B467B807A884FF68B
:1038BC00FF639A4208D07B681B889BB243F48073E9
:1038CC009AB27B681A8007E07B681B889BB223F452
:1038DC0080739AB27B681A800C37BD465DF8047B06
:1038EC00704700BF80B483B000AF78600B46FB70AC
:1038FC00FB78002B08D07B689B889BB243F00403B9
:10390C009AB27B689A8007E07B689B889BB223F015
:10391C0004039AB27B689A800C37BD465DF8047B31
:10392C00704700BF80B483B000AF78600B46FB706B
:10393C00FB78002B08D07B689B889BB243F010036C
:10394C009AB27B689A8007E07B689B889BB223F0D5
:10395C0010039AB27B689A800C37BD465DF8047BE5
:10396C00704700BF80B485B000AF78603960002329
:10397C00BB810023FB817B689B8B9BB223F47B6315
:10398C0023F00F039AB27B689A837B6802221A8415
:10399C007B689B8BBB813B681B88B3F5007F03D096
:1039AC003B681B88002B03D14FF48073FB810BE029
:1039BC003B681B88B3F5407F04D03B681B88B3F58C
:1039CC00807F01D10023FB813B685A883B68998832
:1039DC003B689B890B439BB213439AB2FB891343FD
:1039EC009AB2BB8913439BB243F40063BB817B68DF
:1039FC00BA899A831437BD465DF8047B704700BFC3
:103A0C0080B483B000AF78607B689B899BB218460A
:103A1C000C37BD465DF8047B704700BF80B483B0A3
:103A2C0000AF78600B467B807B687A889A810C3774
:103A3C00BD465DF8047B704780B483B000AF7860FE
:103A4C000B46FB70FB78002B08D07B681B889BB265
:103A5C0043F400539AB27B681A8007E07B681B889A
:103A6C009BB223F400539AB27B681A800C37BD4684
:103A7C005DF8047B704700BF80B483B000AF786002
:103A8C007B681B889BB243F480539AB27B681A8084
:103A9C000C37BD465DF8047B704700BF80B485B021
:103AAC0000AF78600B46FB700023FB81FB78012B89
:103ABC0003D07B681B8BFB8102E07B689B8AFB81BC
:103ACC00FB8918461437BD465DF8047B704700BF70
:103ADC0080B483B000AF78607B681B8A9BB21846B9
:103AEC000C37BD465DF8047B704700BF80B483B0D3
:103AFC0000AF786013460A467A807B707B78002B87
:103B0C0008D07B689B889AB27B8813439AB27B68F7
:103B1C009A8009E07B689B889AB27B88DB439BB2D6
:103B2C0013409AB27B689A800C37BD465DF8047BD3
:103B3C00704700BF80B485B000AF786013460A466A
:103B4C00FA70BB700023FB810023BB81FB781B093F
:103B5C00DBB2FB81FB89012202FA03F3BB81BB7848
:103B6C00002B08D07B689B889AB2BB8913439AB20E
:103B7C007B689A8009E07B689B889AB2BB89DB439F
:103B8C009BB213409AB27B689A801437BD465DF89D
:103B9C00047B704780B485B000AF78600B467B80A7
:103BAC000023FB737B681B899AB27B8813409BB202
:103BBC00002B02D00123FB7301E00023FB73FB7B82
:103BCC0018461437BD465DF8047B704780B483B04B
:103BDC0000AF78600B467B807B88DB439AB27B68B6
:103BEC001A810C37BD465DF8047B704780B485B0F4
:103BFC0000AF78600B46FB700023FB730023BB8186
:103C0C0000237B8100233B81FB7803F00F0301220F
:103C1C0002FA03F3BB81FB781B09DBB27B817B8946
:103C2C00012202FA03F37B817B689B889AB27B8921
:103C3C0013403B817B681B899AB2BB8913409BB2B2
:103C4C00002B05D03B89002B02D00123FB7301E034
:103C5C000023FB73FB7B18461437BD465DF8047BD1
:103C6C00704700BF80B485B000AF78600B46FB7026
:103C7C000023FB81FB7803F00F03012202FA03F30C
:103C8C00FB81FB89DB439AB27B681A811437BD46F2
:103C9C005DF8047B704700BF80B400AF094B002275
:103CAC001A60084B00225A60064B00229A60054BA2
:103CBC000022DA60034B044A5A61BD465DF8047B6E
:103CCC00704700BF003C0140FFFF7F0080B485B00F
:103CDC0000AF78600023FB60324BFB607B689B7904
:103CEC00002B4DD02F4B2F4A11687A681268D243A3
:103CFC000A401A602B4B2B4A51687A681268D243DF
:103D0C000A405A607B681B79FA681344FB60FB68B5
:103D1C00FA6811687A6812680A431A60214B214AC2
:103D2C0091687A681268D2430A409A601D4B1D4A0A
:103D3C00D1687A681268D2430A40DA607B685B7992
:103D4C00102B0ED1174B174A91687A6812680A43E8
:103D5C009A60144B134AD1687A6812680A43DA6085
:103D6C001BE0104BFB607B685B79FA681344FB60CB
:103D7C00FB68FA6811687A6812680A431A600CE0EA
:103D8C007B681B79FA681344FB60FB68FA6811685E
:103D9C007A681268D2430A401A601437BD465DF83F
:103DAC00047B7047003C014080B483B000AF786066
:103DBC007B6800221A607B6800221A717B680C22D7
:103DCC005A717B6800229A710C37BD465DF8047BF2
:103DDC00704700BF80B483B000AF7860054B054AD4
:103DEC0011697A680A431A610C37BD465DF8047B89
:103DFC00704700BF003C014080B485B000AF7860D4
:103E0C000023FB73084B5A697B681340002B02D0CC
:103E1C000123FB7301E00023FB73FB7B1846143773
:103E2C00BD465DF8047B7047003C014080B483B014
:103E3C0000AF7860034B7A685A610C37BD465DF869
:103E4C00047B7047003C014080B485B000AF7860C3
:103E5C000023FB73084B5A697B681340002B02D07C
:103E6C000123FB7301E00023FB73FB7B1846143723
:103E7C00BD465DF8047B7047003C014080B483B0C4
:103E8C0000AF7860034B7A685A610C37BD465DF819
:103E9C00047B7047003C014080B500AF4FF400003C
:103EAC000121FDF71BFB4FF400000021FDF716FB71
:103EBC0080BD00BF80B487B000AF786000237B6109
:103ECC0000233B610023FB600023BB604F4A4F4B38
:103EDC001B6823F0031323F4F85313604B4B4B4A2A
:103EEC0011687A6812680A431A60484B474A526B49
:103EFC0022F007025A63454B444A516B7A68526868
:103F0C000A435A637B685B68002B0CD17B68DB68C7
:103F1C001B027B617B681B691B043B617B685B69D3
:103F2C001B06FB603AE07B685B68012B0AD17B685F
:103F3C00DB681B027B617B681B691B043B610023F4
:103F4C00FB602BE07B685B68022B0AD17B68DB682B
:103F5C005B017B617B681B69DB023B610023FB60BF
:103F6C001CE07B685B68032B0CD17B68DB685B0116
:103F7C007B617B681B699B023B617B685B69DB0334
:103F8C00FB600BE07B68DB681B017B617B681B695A
:103F9C001B023B617B685B691B03FB601B4B1B4A71
:103FAC00916B78693A6910437A6892681043FA68A1
:103FBC0002430A439A63154B7A689269DA63134A8F
:103FCC00124B1B6C23F47F5323F03F0313640F4BF2
:103FDC000E4A116C7A68D2690A431A647B685B6A70
:103FEC001B04BB60094B094A526C02F040425A64F4
:103FFC00064B064A516C7A68106ABA6802430A4347
:10400C005A641C37BD465DF8047B704700B0024013
:10401C0080B483B000AF78607B6800221A607B6844
:10402C0000225A607B680022DA607B6800229A606A
:10403C007B6800221A617B6800225A617B6800222F
:10404C009A617B680022DA617B6800221A627B68C5
:10405C0000225A620C37BD465DF8047B704700BFE6
:10406C0080B400AF044B044A126842F001021A609B
:10407C00BD465DF8047B704700B0024080B400AFD1
:10408C00044B044A126842F004021A60BD465DF803
:10409C00047B704700B0024080B483B000AF03468D
:1040AC00FB71FB79002B06D0084B084A126842F0D2
:1040BC0002021A6005E0054B044A126822F0020263
:1040CC001A600C37BD465DF8047B704700B00240A7
:1040DC0080B489B000AF78600023FB610023BB6122
:1040EC0000237B6100233B610023FB600023BB604A
:1040FC002C4B7A681268DA602A4A2A4B1B6923F423
:10410C007F5323F03F031361264B264A11697A68CB
:10411C0052680A431A61234A224BD969224B0B403D
:10412C00D3617B68DB681B01FB617B681B691B022D
:10413C00BB617B685B691B047B617B689B691B06AD
:10414C003B61184B174AD1697A689068FA69104339
:10415C00BA6910437A6910433A6902430A43DA6137
:10416C00104B104A126A02F07F421A627B681B6A7B
:10417C001B02FB607B685B6A1B04BB60094B094A32
:10418C00116A7A68D069FA681043BA6802430A4324
:10419C001A62044B7A68926ADA622437BD465DF87B
:1041AC00047B704700B00240C000FC0080B483B0B8
:1041BC0000AF78607B6800221A607B6800225A602E
:1041CC007B6800229A607B680022DA607B680022A0
:1041DC001A617B6800225A617B6800229A617B68B5
:1041EC000022DA617B6800221A627B6800225A6224
:1041FC007B6800229A620C37BD465DF8047B7047E1
:10420C0080B489B000AF78600023FB610023BB61F0
:10421C0000237B6100233B610023FB600023BB6018
:10422C002C4B7A6812685A612A4A2A4B9B6923F4F0
:10423C007F5323F03F039361264B264A91697A689A
:10424C0052680A439A61234A224B596A224B0B400B
:10425C0053627B68DB681B01FB617B681B691B027B
:10426C00BB617B685B691B047B617B689B691B067C
:10427C003B61184B174A516A7A689068FA69104387
:10428C00BA6910437A6910433A6902430A435A6285
:10429C00104B104A926A02F07F429A627B681B6A4A
:1042AC001B02FB607B685B6A1B04BB60094B094A01
:1042BC00916A7A68D069FA681043BA6802430A4373
:1042CC009A62044B7A68926A1A632437BD465DF889
:1042DC00047B704700B00240C000FC0080B483B087
:1042EC0000AF78607B6800221A607B6800225A60FD
:1042FC007B6800229A607B680022DA607B6800226F
:10430C001A617B6800225A617B6800229A617B6883
:10431C000022DA617B6800221A627B6800225A62F2
:10432C007B6800229A620C37BD465DF8047B7047AF
:10433C0080B483B000AF0346FB71FB79002B06D031
:10434C00084B084AD26942F02002DA6105E0054BBD
:10435C00044AD26922F02002DA610C37BD465DF8BE
:10436C00047B704700B0024080B483B000AF0346BA
:10437C00FB71FB79002B06D0084B084A526A42F0BD
:10438C0020025A6205E0054B044A526A22F02002D0
:10439C005A620C37BD465DF8047B704700B0024092
:1043AC0080B485B000AF78600B46FB70FB78002BB7
:1043BC0013D00F4A0E4BDB6C23F47F4323F0010325
:1043CC00D3647B681B02FB60094B094AD16CFA6809
:1043DC000A4342F00102DA6405E0054B044AD26C50
:1043EC0022F00102DA641437BD465DF8047B704795
:1043FC0000B0024080B483B000AF7860034B7A68A1
:10440C009A640C37BD465DF8047B704700B00240DF
:10441C0080B483B000AF78600B46FB70FB78002B48
:10442C0006D0094B084A11687A680A431A6006E0FC
:10443C00054B054A11687A68D2430A401A600C375A
:10444C00BD465DF8047B704700B0024080B485B077
:10445C0000AF78600023FB73084B5A687B681340ED
:10446C00002B02D00123FB7301E00023FB73FB7BC9
:10447C0018461437BD465DF8047B704700B0024007
:10448C0080B483B000AF7860034B7A689A600C37C5
:10449C00BD465DF8047B704700B0024080B485B027
:1044AC0000AF78600023FB737B681B0ABB60104B6A
:1044BC005A68BB681340002B02D00123FB7301E048
:1044CC000023FB730A4B1A687B681340002B05D042
:1044DC00FB7B002B02D00123FB7301E00023FB7359
:1044EC00FB7B18461437BD465DF8047B704700BF54
:1044FC0000B0024080B483B000AF78607B681B0AC8
:10450C007B60044B7A689A600C37BD465DF8047B7F
:10451C00704700BF00B0024080B500AF4FF0806024
:10452C000121FDF753F84FF080600021FDF74EF8A4
:10453C0080BD00BF80B489B000AF78600023FB6100
:10454C000023BB6100237B6100233B610023FB60E4
:10455C000023BB603F4A3F4B99683F4B0B40936035
:10456C007B681B691B04FB613A4B3A4A91687A6879
:10457C005069FA6902430A439A60364A354BD96846
:10458C00354B0B40D3607B689B691B04BB61314B83
:10459C00304AD1687A68D069BA6902430A43DA6052
:1045AC002C4A2C4B19692C4B0B4013617B681B6AF2
:1045BC001B047B61274B274A11697A68506A7A6918
:1045CC0002430A431A61234A224B5969224B0B407E
:1045DC0053617B689B6A1B043B611E4B1D4A5169EE
:1045EC007A68D06A3A6902430A435A61194A194BEC
:1045FC0099691A4B0B409361164B164A91697A686C
:10460C0010687A68526810437A68926810437A6826
:10461C00D26802430A439A617B685B6B1B02FB60A6
:10462C007B681B6B1B04BB600A4B0A4AD26A02F004
:10463C007F42DA62074B074AD16AB868FA681043BE
:10464C007A68926B02430A43DA622437BD465DF8FE
:10465C00047B70470068014000F800F08F88FE0F63
:10466C0080B483B000AF78607B6800221A607B68EE
:10467C0000225A607B6800229A607B680022DA6014
:10468C007B6800221A617B6800225A617B680022D9
:10469C009A617B680022DA617B6800221A627B686F
:1046AC0000225A627B6800229A627B680022DA62DE
:1046BC007B6800221A637B6800225A637B680022A5
:1046CC009A630C37BD465DF8047B704780B483B0A9
:1046DC0000AF0346FB71FB79002B06D0084B084A50
:1046EC00926942F001029A6105E0054B044A926915
:1046FC0022F001029A610C37BD465DF8047B7047CD
:10470C000068014080B483B000AF0346FB71FB79B5
:10471C00002B06D0084B084A926942F480329A6109
:10472C0005E0054B044A926922F480329A610C37F9
:10473C00BD465DF8047B70470068014080B487B0CB
:10474C0000AF7860114A114B9969114B0B40936182
:10475C000E4B9B691B0903F00703FB600B4B9B691A
:10476C001B0A03F007033B61084B9B691B0B03F00F
:10477C0007037B617B6807F10C0207CA83E807001B
:10478C0078681C37BD465DF8047B704700680140B3
:10479C008F88FE0F80B483B000AF78607B680222F4
:1047AC001A607B6802225A607B6802229A600C377E
:1047BC00BD465DF8047B704780B483B000AF786071
:1047CC00034B7A681A640C37BD465DF8047B70475E
:1047DC000068014080B483B000AF7860034B7A6806
:1047EC005A620C37BD465DF8047B70470068014087
:1047FC0080B489B000AF786039600023FB6100237E
:10480C00BB6100237B6100233B610023FB60002321
:10481C00BB603B685B681B04FB617B685B6803F4F3
:10482C0070427B685A603B681A68FB691A437B6864
:10483C005A603B68DB681B04BB617B689B6803F4B4
:10484C0070427B689A603B689A68BB691A437B68C4
:10485C009A607B681B6923F007027B681A613B68CE
:10486C001A697B681A613B68DB691B027B613B68D8
:10487C001B6A1B043B613B685B6A1B06FB607B6825
:10488C009B697B6800229A613B689A697B691A4331
:10489C003B691A43FB681A437B689A617B685B69C6
:1048AC0023F0FF027B685A613B685A697B685A6146
:1048BC007B68DB6923F4E06323F007037A68D36138
:1048CC003B689A6A3B68DB6A1A437B68DA617B68EF
:1048DC009B6A7B6800229A623B681A6B7B689A62BF
:1048EC003B689B6B1B04BB607B68DB6A03F0E022BC
:1048FC007B68DA623B685A6BBB681A437B68DA6286
:10490C007B681B6B23F4FF6323F007037A68136344
:10491C003B68DA6B7B681A632437BD465DF8047B11
:10492C00704700BF80B483B000AF78607B68002212
:10493C001A607B6800225A607B6800229A607B6850
:10494C000022DA607B6800221A617B68FF225A61C0
:10495C007B6800229A617B680022DA617B68002206
:10496C001A627B6800225A627B684FF4C0629A62BA
:10497C007B680722DA627B6800221A637B6800225C
:10498C005A637B6800229A637B680022DA630C37D7
:10499C00BD465DF8047B704780B483B000AF78608F
:1049AC000B46FB70FB78002B06D07B681B6843F032
:1049BC0001027B681A6005E07B681B6823F001022A
:1049CC007B681A600C37BD465DF8047B704700BFEE
:1049DC0080B485B000AF78600C4B5B6C0B4B002245
:1049EC005A640A4B5B6C1B0CBB60084B5B6C9BB238
:1049FC00FB607B6807F1080292E8030083E8030080
:104A0C0078681437BD465DF8047B70470068014038
:104A1C0080B483B000AF78607B6800221A607B683A
:104A2C0000225A600C37BD465DF8047B704700BF0E
:104A3C0080B485B000AF7860084B9A6C7B681340EB
:104A4C00002B02D00123FB7301E00023FB73FB7BE3
:104A5C0018461437BD465DF8047B7047006801406A
:104A6C0080B487B000AFF860B9601346FB710023C7
:104A7C007B6100233B61FB79002B1FD0FB681B681B
:104A8C0043F00202FB681A60BB685B681B027B6127
:104A9C00BB689B681B043B61FB68DB6803F07F42CF
:104AAC00FB68DA60FB68DA68BB6819687B691943D4
:104ABC003B690B431A43FB68DA6005E0FB681B6833
:104ACC0023F00202FB681A60034B01225A621C3766
:104ADC00BD465DF8047B70470068014080B483B02C
:104AEC0000AF78607B6800221A607B6800225A60F5
:104AFC007B6800229A600C37BD465DF8047B7047DA
:104B0C0080B483B000AF78600B46FB70FB78002B51
:104B1C0006D07B681B6843F010027B681A6005E0C6
:104B2C007B681B6823F010027B681A60034B012220
:104B3C005A620C37BD465DF8047B70470068014033
:104B4C0080B487B000AF7860396000237B610023AC
:104B5C003B610023FB603B689B681B027B613B68ED
:104B6C00DB681B043B613B681B681B06FB603B68F6
:104B7C005A68FB681A437B691A433B691A437B6882
:104B8C001A641C37BD465DF8047B704780B483B053
:104B9C0000AF78607B6800221A607B6800225A6044
:104BAC007B6800229A607B680022DA600C37BD4675
:104BBC005DF8047B704700BF80B489B000AF7860AB
:104BCC0013460A467A803B807B685B6803F470422C
:104BDC007B685A607B689B6803F470427B689A60C0
:104BEC002B4BDB68BB61BB691A0C7B88134401330C
:104BFC007B61BB699AB23B88134401333B617B6890
:104C0C001B69BB61BB69002B02D10423FB6116E05D
:104C1C00BB69012B02D10323FB6110E0BB69042BA0
:104C2C0008D0BB69022B05D0BB69032B02D0BB6932
:104C3C00072B02D10223FB6101E00123FB617B689E
:104C4C00DB6ABB61BB69C3F30C03DA1EFB69B2FB05
:104C5C00F3F27B691344013BFB607B681B6BBB610C
:104C6C00BB69C3F30A023B691344013BBB60FB689D
:104C7C001A047B691A437B685A60BB681A043B6947
:104C8C001A437B689A602437BD465DF8047B7047F5
:104C9C000068014080B483B000AF78600B46FB70B5
:104CAC00FA787B685A610C37BD465DF8047B704717
:104CBC0080B483B000AF786039607B683A689A62E0
:104CCC000C37BD465DF8047B704700BF80B48BB0D9
:104CDC0000AFF860B9607A60FB681B693B623B6AA5
:104CEC00002B03D1042387F8273019E03B6A012BF2
:104CFC0003D1032387F8273012E03B6A042B08D03A
:104D0C003B6A022B05D03B6A032B02D03B6A072B74
:104D1C0003D1022387F8273002E0012387F82730DC
:104D2C00FB685B683B623B6AC3F30C03FB61BA68CC
:104D3C00FB691344013BBB61FB689B683B623B6AAC
:104D4C00C3F30C037B617A687B691344013B3B61C1
:104D5C00BB691A04FB691A43FB685A603B691A0465
:104D6C007B691A43FB689A6097F82730BA6802FB94
:104D7C0003F31A0497F82730B96801FB03F30333E4
:104D8C001A43FB68DA62FB687A681A632C37BD46F3
:104D9C005DF8047B704700BF80B485B000AF7860CD
:104DAC0039607B681B69BB60BB68002B02D1042394
:104DBC00FB7316E0BB68012B02D10323FB7310E0DD
:104DCC00BB68042B08D0BB68022B05D0BB68032B37
:104DDC0002D0BB68072B02D10223FB7301E0012335
:104DEC00FB737B68DB6A1B0CBB60FB7BBA68B2FB9A
:104DFC00F3F3BB603B68002B02D10423FB7316E07A
:104E0C003B68012B02D10323FB7310E03B68042B9E
:104E1C0008D03B68022B05D03B68032B02D03B68C3
:104E2C00072B02D10223FB7301E00123FB73FB7BF5
:104E3C00BA6802FB03F31A04FB7BB96801FB03F3AA
:104E4C0003331A437B68DA627B683A681A61143759
:104E5C00BD465DF8047B704780B483B000AF7860CA
:104E6C000B46FB70FB78002B06D0094B084A516BA4
:104E7C007A680A435A6306E0054B054A516B7A6817
:104E8C00D2430A405A630C37BD465DF8047B704729
:104E9C000068014080B485B000AF78600023FB73DC
:104EAC00084B9A6B7B681340002B02D00123FB73D9
:104EBC0001E00023FB73FB7B18461437BD465DF8FD
:104ECC00047B70470068014080B483B000AF786009
:104EDC00034B7A68DA630C37BD465DF8047B704788
:104EEC000068014080B485B000AF78600023FB738C
:104EFC000F4B9A6B7B681340002B02D00123FB7382
:104F0C0001E00023FB730A4B5A6B7B681340002BA8
:104F1C0005D0FB7B002B02D00123FB7301E00023A7
:104F2C00FB73FB7B18461437BD465DF8047B70475A
:104F3C000068014080B483B000AF7860034B7A689E
:104F4C00DA630C37BD465DF8047B7047006801409E
:104F5C0080B483B000AF78607B68002B07D14FF032
:104F6C0020437A6843F2DB0143F8221006E04FF04D
:104F7C0020437A6843F2D20143F822104FF02043C9
:104F8C007A6801326FF0704143F82210054B7A6851
:104F9C006FF0704143F822100C37BD465DF8047B6E
:104FAC00704700BF040100A080B485B000AF7860EA
:104FBC000023FB604FF020437A68126879684868D8
:104FCC007968896808437968C96808437968096908
:104FDC00084379684969084379688969084379689D
:104FEC00C96908437968096A08437968496A0843BA
:104FFC007968896A08437968C96A08437968096BD2
:10500C0008437968496B014343F822107B689B681D
:10501C00082B0DD14FF020437A6812684FF02041D5
:10502C007868006851F8201041F0400143F82210D4
:10503C007B685B6BB3F5801F24D17B681B68002BEE
:10504C0020D04FF020435B6823F47003FB604FF0DB
:10505C0020434FF0204211687A68526B0A431A6061
:10506C004FF020434FF02042126842F480721A60D5
:10507C004FF020437A68926B1269013A1105FA6875
:10508C000A435A604FF020437A68126801327968FB
:10509C00896B08687968896B4968090108437968E4
:1050AC00896B8968090208437968896BC9680904A6
:1050BC0008437968896B0969090508437968896B24
:1050CC004969090608437968896B8969014343F882
:1050DC0022107B689B6AB3F5804F20D1164B7A68FF
:1050EC0012687968C96B08687968C96B49680901E5
:1050FC0008437968C96B8968090208437968C96BE8
:10510C000969090508437968C96B496909060843A7
:10511C007968C96B8969014343F8221006E0064B94
:10512C007A6812686FF0704143F822101437BD464C
:10513C005DF8047B704700BF040100A080B483B00D
:10514C0000AF78607B6800221A607B6802225A608C
:10515C007B6800229A607B681022DA607B680022F0
:10516C001A617B680022DA627B6800225A617B68D4
:10517C0000229A617B680022DA617B684FF48052CE
:10518C001A627B684FF400525A627B6800229A6262
:10519C007B6800221A637B6800225A637B689B6BD6
:1051AC000F221A607B689B6B0F225A607B689B6B8B
:1051BC00FF229A607B689B6B0F22DA607B689B6B8B
:1051CC000F221A617B689B6B0F225A617B689B6B69
:1051DC0000229A617B68DB6B0F221A607B68DB6BA9
:1051EC000F225A607B68DB6BFF229A607B68DB6B5B
:1051FC000F22DA607B68DB6B0F221A617B68DB6B3A
:10520C000F225A617B68DB6B00229A610C37BD461A
:10521C005DF8047B704700BF80B483B000AF78604A
:10522C000B46FB70FB78002B0CD04FF020434FF05B
:10523C002042796852F8212042F001017A6843F843
:10524C0022100BE04FF020424FF02043796853F8C6
:10525C002110054B0B40796842F821300C37BD46C4
:10526C005DF8047B704700BFFEFF0F0080B483B075
:10527C0000AF78607B68102B0ED1114B18221A608E
:10528C000F4B40225A600E4B4FF0FC329A600C4B85
:10529C004FF0FC32DA600DE00A4B18221A60094B11
:1052AC0040225A60074B4FF0FC329A60054B4FF08E
:1052BC00FC32DA600C37BD465DF8047B704700BFEA
:1052CC00600000A0800000A080B487B000AF7860C0
:1052DC0000237B6100233B610023FB607B685A68E1
:1052EC007B689B681A437B68DB681A437B681B6985
:1052FC001A437B685B695B021A437B689B695B039F
:10530C00134343F008037B617B68DB691A687B6895
:10531C00DB695B681B021A437B68DB699B681B04B7
:10532C001A437B68DB69DB681B0613433B617B68B4
:10533C001B6A1A687B681B6A5B681B021A437B68D2
:10534C001B6A9B681B041A437B681B6ADB681B0681
:10535C001343FB607B681B68102B09D10B4B7A69DC
:10536C001A600A4B3A699A60084BFA68DA6008E0EE
:10537C00074B7A691A60064B3A699A60044BFA68D3
:10538C00DA601C37BD465DF8047B7047600000A0F6
:10539C00800000A080B483B000AF78607B681022DE
:1053AC001A607B6800225A607B6810229A607B68C6
:1053BC000022DA607B6800221A617B6800225A6145
:1053CC007B6800229A617B68DB69FC221A607B682F
:1053DC00DB69FC225A607B68DB69FC229A607B6883
:1053EC00DB69FC22DA607B681B6AFC221A607B6832
:1053FC001B6AFC225A607B681B6AFC229A607B68E1
:10540C001B6AFC22DA600C37BD465DF8047B7047E2
:10541C0080B483B000AF78600B46FB70FB78002B38
:10542C0010D07B68102B06D1114B114A126842F038
:10543C0004021A6016E00F4B0E4A126842F0040286
:10544C001A600FE07B68102B06D1094A084B1968CB
:10545C00094B0B40136005E0064A064B1968064BD6
:10546C000B4013600C37BD465DF8047B704700BFE2
:10547C00600000A0800000A0FBFF0F0080B483B090
:10548C0000AF78600B46FB70FB78002B10D07B686C
:10549C00102B06D1114B114A126842F040021A60CF
:1054AC0016E00F4B0E4A126842F040021A600FE0F1
:1054BC007B68102B06D1094A084B1968094B0B4025
:1054CC00136005E0064A064B1968064B0B40136047
:1054DC000C37BD465DF8047B704700BF600000A030
:1054EC00800000A0BFFF0F0080B485B000AF7860D3
:1054FC000023FB607B68102B03D1074B5B69FB60BF
:10550C0002E0064B5B69FB60FB6818461437BD462E
:10551C005DF8047B704700BF600000A0800000A015
:10552C0080B400AF0A4B18221A60094B00225A6053
:10553C00074B4FF0FC329A60054B4FF0FC32DA60AF
:10554C00034B4FF0FC321A61BD465DF8047B70478B
:10555C00A00000A080B483B000AF7860274B7A68BD
:10556C0011687A685268520211437A689268520341
:10557C000A4342F010021A60204B7A68D268116814
:10558C007A68D2685268120211437A68D2689268BB
:10559C00120411437A68D268D26812060A439A60E0
:1055AC00164B7A68126911687A681269526812028D
:1055BC0011437A6812699268120411437A6812696D
:1055CC00D26812060A43DA600C4B7A685269116889
:1055DC007A6852695268120211437A685269926869
:1055EC00120411437A685269D26812060A431A618E
:1055FC000C37BD465DF8047B704700BFA00000A0CF
:10560C0080B483B000AF78607B6800221A607B683E
:10561C0000225A607B6800229A607B68DB68FC225F
:10562C001A607B68DB68FC225A607B68DB68FC22B2
:10563C009A607B68DB68FC22DA607B681B69FC2261
:10564C001A607B681B69FC225A607B681B69FC2210
:10565C009A607B681B69FC22DA607B685B69FC22C0
:10566C001A607B685B69FC225A607B685B69FC2270
:10567C009A607B685B69FC22DA600C37BD465DF88A
:10568C00047B704780B483B000AF0346FB71FB7999
:10569C00002B06D0084B084A126842F004021A602C
:1056AC0005E0054A044B1968044B0B4013600C379A
:1056BC00BD465DF8047B7047A00000A0FBFF0F0007
:1056CC0080B483B000AF78600D4B7A684FF43471BE
:1056DC0043F822100A4B7A6802326FF0704143F89B
:1056EC002210074B00221A61054B00225A61044B11
:1056FC0000229A610C37BD465DF8047B704700BFF1
:10570C00400100A080B487B000AF786000237B61BB
:10571C0000233B610023FB600023BB607B685A685D
:10572C007B689B681A437B68DB681A437B681B6940
:10573C001A437B685B691A437B689B691A437B68D5
:10574C00DB691A437B681B6A1A437B685B6A1343E9
:10575C007B617B681B68002B06D1404B7A68126812
:10576C00796943F8221011E07B68DA697B681B6A5F
:10577C001A437B685B6A1343FB60384BFA681A6008
:10578C00364B7A681268796943F822107B681B687B
:10579C00002B30D17B689B6A1B685A1E7B689B6A06
:1057AC005B68013B1B011A437B689B6A9B68013B4E
:1057BC001B021A437B689B6ADB68013B1B031A4381
:1057CC007B689B6A1B69013B1B041A437B689B6AC1
:1057DC005B69013B1B051A437B689B6A9B69013B18
:1057EC001B0613433B611D4B7A6812680232396900
:1057FC0043F822102CE07B689B6A1B685A1E7B685E
:10580C009B6A5B68013B1B011A437B689B6A9B6824
:10581C00013B1B021A437B689B6A1B69013B1B04FF
:10582C0013433B617B689B6ADB68013B1A037B6813
:10583C009B6A5B69013B1B051343BB60074BBA6852
:10584C009A60064B7A6812680232396943F8221062
:10585C001C37BD465DF8047B704700BF400100A0BB
:10586C0080B483B000AF78607B6800221A607B68DC
:10587C0000225A607B6800229A607B681022DA60F2
:10588C007B6840221A617B6880225A617B684FF4E6
:10589C0000729A617B680022DA617B6800221A62CE
:1058AC007B6800225A627B689B6A10221A607B68B4
:1058BC009B6A10225A607B689B6A10229A607B68F4
:1058CC009B6A1022DA607B689B6A10221A617B68E3
:1058DC009B6A10225A617B689B6A10229A610C3772
:1058EC00BD465DF8047B704780B485B000AF78602E
:1058FC000023FB607B681A687B685B681A437B68D3
:10590C009B68013B5B011A437B68DB685B021343BA
:10591C00FB60044BFA681A611437BD465DF8047BD2
:10592C00704700BF400100A080B485B000AF786024
:10593C000023FB607B68002B05D1094B9B6903F0AE
:10594C000603FB6005E0064B9B6903F018039B08FC
:10595C00FB60FB6818461437BD465DF8047B704746
:10596C00400100A080B483B000AF7860054B054ABD
:10597C0051697A6852000A435A610C37BD465DF88A
:10598C00047B7047400100A080B483B000AF786006
:10599C00054B054A11697A6852010A431A610C37A2
:1059AC00BD465DF8047B7047400100A080B483B015
:1059BC0000AF78600B46FB70FB78002B0AD00D4BC8
:1059CC000C4A796852F8212042F400717A6843F845
:1059DC0022100AE0074A074B796853F8211047F662
:1059EC00FF530B40796842F821300C37BD465DF807
:1059FC00047B7047400100A080B485B000AFF86014
:105A0C00B9601346FB71FB79002B26D0FB68102B79
:105A1C0006D1294B284A5168BA680A435A6046E0B5
:105A2C00FB68B3F5807F06D1244B244A5168BA68D1
:105A3C000A435A603BE0FB68B3F5805F06D1204B0C
:105A4C001F4A5168BA680A435A6030E01D4B1D4A20
:105A5C005169BA680A435A6129E0FB68102B07D1D7
:105A6C00154B154A5168BA68D2430A405A601EE079
:105A7C00FB68B3F5807F07D1104B104A5168BA68A8
:105A8C00D2430A405A6012E0FB68B3F5805F07D13D
:105A9C000B4B0B4A5168BA68D2430A405A6006E075
:105AAC00084B084A5169BA68D2430A405A61143704
:105ABC00BD465DF8047B7047600000A0800000A02C
:105ACC00A00000A0400100A080B485B000AF7860B9
